:020000040800F2
:10000000FCFF00209D0C0000810C0000810C000012
:10001000810C0000810C0000810C0000810C0000AC
:10002000810C0000810C0000810C0000810C00009C
:10003000810C0000810C0000810C0000810C00008C
:10004000810C0000810C0000810C0000810C00007C
:10005000810C0000810C0000810C0000810C00006C
:10006000810C0000810C0000810C0000810C00005C
:10007000810C0000810C0000810C0000810C00004C
:10008000810C0000810C0000810C0000810C00003C
:10009000810C0000810C0000810C0000810C00002C
:1000A000810C0000810C0000810C0000810C00001C
:1000B000810C0000810C0000810C0000810C00000C
:1000C000810C0000810C0000810C0000810C0000FC
:1000D000810C0000810C0000810C0000810C0000EC
:1000E000810C0000810C0000810C0000810C0000DC
:1000F000810C0000810C0000810C0000810C0000CC
:10010000810C0000810C0000810C0000810C0000BB
:10011000810C0000810C0000810C0000810C0000AB
:10012000810C0000810C0000810C0000810C00009B
:10013000810C0000810C0000810C0000810C00008B
:10014000810C0000810C0000810C0000810C00007B
:1001500081B0194900EA0101084600220EE004209E
:1001600022E0082020E010201EE020201CE040209B
:100170001AE0802018E040F2001015E00F49884294
:10018000EDD00F498842ECD00E498842EBD00E49A1
:100190008842EAD00D498842E9D00D498842E8D02A
:1001A0000C498842E7D010460B49096841EA000231
:1001B00009490A6001B0704700FCFFFF00080140D8
:1001C000000C0140001001400014014000180140E3
:1001D000001C0140002001401810024081B0CDF801
:1001E00000E08CB21546774B00EA03031E46184622
:1001F000FFF7AEFFB4F1FF0F0CD1734B9D4203D15B
:100200004FF033333360D9E0422D03D14FF0443304
:100210003360D3E04FF6FF739C4214D16A4B9D428A
:1002200007D14FF033333360341D4FF03333236045
:10023000C4E0422D07D14FF044333360341D4FF0FA
:1002400044332360BAE00021002005F001030BB124
:1002500000211DE005F0020333B105F4C0730BB1BA
:10026000082100E0042113E005F0040333B105F098
:1002700020030BB1042100E0002109E005F0080390
:1002800033B105F020030BB10C2100E00821FFE79A
:100290004E4B05EA03030BB1032009E005F400739C
:1002A0000BB1022004E005F480630BB10120FFE7ED
:1002B00005F00C030BB10143FFE704F0FF039BB211
:1002C000002B3BD0376800201FFA84F832462E46B8
:1002D00008282CD24FF0010303FA00F408EA0403C3
:1002E000A34222D185004FF00F03AB40DB4307EA66
:1002F000030401FA05F344EA03031D4606F481737F
:10030000B3F5817F05D102F214044FF0010383405D
:10031000236006F08203822B05D102F210044FF015
:100320000103834023602F46FFE7401CD0E717609E
:100330001FFA88F00F463146164602E00F4629465E
:10034000A0B2B0F1FF0F39D9331DD3F800800022DD
:10035000082A30D202F208044FF0010303FA04F431
:1003600000EA0403A34224D195004FF00F03AB40F1
:10037000DB4308EA030807FA05F348EA030801F437
:100380008173B3F5817F07D106F2140502F20804E8
:100390004FF00103A3402B6001F08203822B07D1B1
:1003A00006F2100502F208044FF00103A3402B608F
:1003B000FFE7521CCCE7331DC3F80080DDF800E0F6
:1003C00001B0704700FCFFFF14000800000808009F
:1003D00081B0CDF800E04FF0420289B2FFF7FEFE97
:1003E000DDF800E001B0704781B0CDF800E0044ACC
:1003F00089B2FFF7F3FEDDF800E001B0704700BFFF
:100400001400080001490860704700BF94012142B0
:1004100001490860704700BFA88122420149086075
:10042000704700BFB881224201490860704700BF91
:100430008C01224201490860704700BF9881214227
:1004400001490860704700BF9C8121420149086052
:10045000704700BFA481224201490860704700BF75
:10046000A081224201490860704700BFA8012242D2
:1004700001490860704700BF948122420149086029
:10048000704700BF9881224201490860704700BF51
:100490009C81214201490860704700BF9881214238
:1004A00001490860704700BFB0012242014908605D
:1004B000704700BFAC01224201490860704700BF8D
:1004C000AC81224201490860704700BFB0812242DE
:1004D00001490860704700BF90012142014908604E
:1004E000704700BF8801224200F208010A680849EB
:1004F0000A60011D0A6807490A6000F218010A68CB
:1005000005490A6000F21C010A6804490A60704744
:1005100004000020080000200C0000201000002033
:1005200081B0CDF800E0A9E0012905D140F2100129
:100530006548FFF74DFF04E040F210016248FFF705
:1005400053FFBBE0012905D140F204015F48FFF7EA
:100550003FFF04E040F204015C48FFF745FFADE0D7
:10056000012905D142F200015948FFF731FF04E0AB
:1005700042F200015648FFF737FF9FE0012905D1FD
:1005800040F200415148FFF723FF04E040F20041F0
:100590004E48FFF729FF91E0012905D140F60001FF
:1005A0004A48FFF715FF04E040F600014748FFF70F
:1005B0001BFF83E0012905D141F200014348FFF709
:1005C00007FF04E041F200014048FFF70DFF75E02E
:1005D000012905D140F201013B48FFF7F9FE04E093
:1005E00040F201013848FFF7FFFE67E0012905D11D
:1005F00040F200413648FFF7EBFE04E040F20041D4
:100600003348FFF7F1FE59E0012905D140F20021FE
:100610002F48FFF7DDFE04E040F200212C48FFF7F1
:10062000E3FE4BE0012905D140F200112848FFF715
:10063000CFFE04E040F200112548FFF7D5FE3DE073
:10064000012905D140F240012248FFF7C1FE04E034
:1006500040F240011F48FFF7C7FE2FE0012905D1F6
:1006600040F280011B48FFF7B3FE04E040F2800136
:100670001848FFF7B9FE21E0012020E000283FF4F0
:1006800053AF01283FF45EAF02283FF469AF03285F
:100690003FF474AF04283FF47FAF05283FF48AAFDE
:1006A00006283FF495AF0728A0D00828ACD0092829
:1006B000B8D00A28C4D00B28D0D0DDE70020DDF860
:1006C00000E001B0704700BF000801400010014089
:1006D00000140140000C014081B0CDF800E0A9E019
:1006E000012905D140F220016548FFF771FE04E0C1
:1006F00040F220016248FFF777FEBBE0012905D1F7
:1007000040F208015F48FFF763FE04E040F2080191
:100710005C48FFF769FEADE0012905D144F2000114
:100720005948FFF755FE04E044F200015648FFF730
:100730005BFE9FE0012905D140F200415148FFF7DF
:1007400047FE04E040F200414E48FFF74DFE91E0C5
:10075000012905D140F600014A48FFF739FE04E0BF
:1007600040F600014748FFF73FFE83E0012905D12D
:1007700041F200014348FFF72BFE04E041F2000183
:100780004048FFF731FE75E0012905D141F2000133
:100790003D48FFF71DFE04E041F200013A48FFF733
:1007A00023FE67E0012905D140F600013648FFF736
:1007B0000FFE04E040F600013348FFF715FE59E054
:1007C000012905D140F240012F48FFF701FE04E066
:1007D00040F240012C48FFF707FE4BE0012905D10C
:1007E00040F220012848FFF7F3FD04E040F2200129
:1007F0002548FFF7F9FD3DE0012905D140F2400110
:100800002248FFF7E5FD04E040F240011F48FFF7F2
:10081000EBFD2FE0012905D140F280011B48FFF7D5
:10082000D7FD04E040F280011848FFF7DDFD21E02C
:10083000012020E000283FF453AF01283FF45EAFD1
:1008400002283FF469AF03283FF474AF04283FF453
:100850007FAF05283FF48AAF06283FF495AF0728FD
:10086000A0D00828ACD00928B8D00A28C4D00B28BA
:10087000D0D0DDE70020DDF800E001B0704700BF18
:10088000000801400010014000140140000C01402C
:1008900001490860704700BFAC012242014908606D
:1008A000704700BFB001224201490860704700BF95
:1008B0008001214201490860704700BFA80122421F
:1008C00001490860704700BFB481224281B0CDF871
:1008D00000E05FFA81F95FFA82FA0FE05FFA8AF1CD
:1008E0005FFA89F0FFF71CFE0DE05FFA8AF15FFA0C
:1008F00089F0FFF7F1FE06E0012004E00028EDD0CA
:100900000128F2D0F8E7DDF800E001B07047FFFF02
:1009100081B0CDF800E060B900203C4C2468A047CD
:1009200000203B4C2468A04700203A4C2468A04794
:1009300067E001280CD10020344C2468A047002037
:10094000334C2468A0470120324C2468A04758E06B
:1009500002280CD100202D4C2468A04701202C4CEB
:100960002468A04700202B4C2468A04749E00328B6
:100970000CD10020254C2468A0470120244C246879
:10098000A0470120234C2468A0473AE004280CD15A
:1009900001201E4C2468A04700201D4C2468A0475D
:1009A00000201C4C2468A0472BE005280CD1012016
:1009B000164C2468A0470020154C2468A04701204D
:1009C000144C2468A0471CE006280CD101200F4CD1
:1009D0002468A04701200E4C2468A04700200D4C3D
:1009E0002468A0470DE007280BD10120074C24689C
:1009F000A0470120064C2468A0470120054C24682C
:100A0000A047DDF800E001B0704700BF10000020F3
:100A10000C0000200800002044F67F77C0F2120787
:100A20007F1EFDD100BF00BF00BF00BF00BF7047E9
:100A300081B0CDF800E0FFF757FDDDF800E001B030
:100A40007047FFFF81B0CDF800E00120034C24681F
:100A5000A047DDF800E001B0704700BF04000020AF
:100A600081B01548006840F0010113480160134946
:100A70001348016010480168124801400E480160A7
:100A80000D4801686FF4802001400B4801600C485C
:100A900001686FF4FE0001400948016006480168E2
:100AA0006FF0A0500140044801604FF0000106487B
:100AB000016001B0704700BF001002400000FFF06D
:100AC00004100240FFFFF6FE2C100240FFFFFFFF64
:100AD00081B0CDF800E00020FFF71AFF48F2FF6771
:100AE000C0F2933700BF00BF7F1EFDD100BF00BF23
:100AF00000BF0120FFF70CFF48F2FF67C0F29337F9
:100B00007F1EFDD100BF00BF00BF00BF00BF02209D
:100B1000FFF7FEFE48F2FF67C0F2933700BF00BF49
:100B20007F1EFDD100BF00BF00BF0320FFF7F0FE16
:100B300048F2FF67C0F293377F1EFDD100BF00BFB0
:100B400000BF00BF00BF0420FFF7E2FE48F2FF67CE
:100B5000C0F2933700BF00BF7F1EFDD100BF00BFB2
:100B600000BF0520FFF7D4FE48F2FF67C0F29337BD
:100B70007F1EFDD100BF00BF00BF00BF00BF062029
:100B8000FFF7C6FE48F2FF67C0F2933700BF00BF11
:100B90007F1EFDD100BF00BF00BF0720FFF7B8FEDA
:100BA00048F2FF67C0F293377F1EFDD100BF00BF40
:100BB00000BF00BF00BFDDF800E001B07047FFFFDD
:100BC00081B01CF8019B0BF8019BBBEB0A0FF8D11D
:100BD00001B07047FFFFFFFF81B0CDF800E00022B9
:100BE00006210020FFF772FE002201210020FFF7FE
:100BF0006DFE002202210020FFF768FE002207217F
:100C00000020FFF763FE44F67F77C0F2120700BFB3
:100C100000BF7F1EFDD100BF00BF00BFDDF800E0B8
:100C200001B0704781B0CDF800E00548FFF700FF44
:100C3000FFF708FFFFF7F0FEDDF800E001B07047B6
:100C4000FC0D000081B04FF000094FF0000CBDEB2F
:100C50000A0F04DCBDEB0B0F01DBD446EA464BF870
:100C6000049BBBEB0A0FFAD1BCEB0A0F05DDE24691
:100C7000D9F800B00BF1040BF1E701B07047FFFFAA
:100C800081B0FEE701B0704781B0024902480160BF
:100C900001B07047401901000000002000F00CF87E
:100CA00000F0DCF8FFF7F0FFFFF796FFFFF7BAFF61
:100CB000FFF70EFFFCE7FEE781B0CDF800E0464A03
:100CC000464B474C47494BF68030814206D946484F
:100CD000006840F002014448016011E045F6C05050
:100CE000814206D94048006840F001013E48016059
:100CF00006E03D4801686FF0070001403A48016096
:100D0000FFF7AEFE3948036039480460394802EA0B
:100D100000013948016002F0010040B1194636482F
:100D2000006800F00200002800D1F8E700E0194652
:100D300002F4803040B10B462F48006800F40030C8
:100D4000002800D1F8E700E00B4602F0805068B1BF
:100D50002948006840F08051274801602648006813
:100D600000F00050002800D1F8E7FFE702F08060B3
:100D700078B12148006840F080611F480160114649
:100D80001A461D48006800F00060002800D1F8E70E
:100D900001E011461A4601F0807070B116480068F3
:100DA00040F080711448016011461348006800F05B
:100DB000007000B9F9E70A46FFE70C48006800F048
:100DC0000C01900000F00C00814200D0F5E7DDF846
:100DD00000E001B0704700BF8100010502841D00E2
:100DE00044060100401901000020024004100240A6
:100DF0002C100240FFFF0F0000100240D104000041
:100E0000DD040000C1080000B508000091080000E2
:100E10009D080000A9080000110400004D04000016
:100E2000590400003504000041040000FFFFFFFFEB
:100E3000FFFFFFFFFFFFFFFFFFFFFFFFFFFFFFFFC2
:100E4000FFFFFFFFFFFFFFFFFFFFFFFFFFFFFFFFB2
:100E5000FFFFFFFFFFFFFFFFFFFFFFFF00B5DFF812
:100E600010B0DFF810A0FFF7EDFE00BD704700BF27
:100E70000000002014000020FFFFFFFFFFFFFFFF26
:00000001FF
